:020000040804EE
:1000000000000824F540050841410508A9C404087A
:10001000AFC40408B5C40408BBC404080000000051
:100020000000000000000000000000003D55040832
:100030004141050800000000D5550408E5550408B5
:100040004141050841410508414105084141050874
:100050004141050841410508414105084141050864
:100060004141050841410508414105084141050854
:100070004141050841410508414105084141050844
:10008000414105084141050841410508054E050863
:10009000154E0508114E0508214E05084141050879
:1000A0004141050841410508414105084141050814
:1000B0004141050841410508414105084141050804
:1000C00041410508414105084141050841410508F4
:1000D00041410508414105084141050841410508E4
:1000E0004141050841410508000000004141050863
:1000F00041410508414105084141050841410508C4
:1001000041410508093E05084141050841410508EE
:1001100041410508414105084141050841410508A3
:100120004141050841410508414105084141050893
:10013000414105081189040841410508414105086C
:100140004141050841410508000000000000000091
:100150004141050841410508414105084141050863
:100160004141050841410508414105084141050853
:1001700041410508414105084141050800000000D2
:100180004141050841410508414105084141050833
:100190004141050841410508414105084141050823
:1001A0004141050841410508414105084141050813
:1001B0004141050841410508414105084141050803
:1001C00041410508414105084141050841410508F3
:1001D00041410508414105084141050841410508E3
:1001E00041410508414105084141050841410508D3
:1001F00041410508414105084141050841410508C3
:1002000041410508414105084141050841410508B2
:1002100041410508414105084141050841410508A2
:100220004141050841410508414105084141050892
:1002300041410508F14005084141050841410508D3
:100240004141050841410508414105084141050872
:100250004141050841410508414105084141050862
:100260004141050841410508414105084141050852
:100270004141050841410508414105084141050842
:1002800041410508414105084141050800000000C1
:10029000414105084141050810B5054C237833B9A3
:1002A000044B13B10448AFF300800123237010BD49
:1002B0000018002400000000943A060808B5034B1B
:1002C0001BB103490348AFF3008008BD00000000E4
:1002D00004180024943A0608154B002B08BF134B52
:1002E0009D46A3F5803A00218B460F461348144AD9
:1002F000121A1AF045FB0F4B002B00D098470E4BFB
:10030000002B00D098470020002104000D000D486C
:10031000002802D00C480CF083FF19F033FE2000B7
:10032000290007F031FC0DF093F900BF0000080030
:100330000000082400000000E57A040800180024EA
:10034000A001012421D2040800000000704770477A
:1003500070B50C4C0C4E0D4D20460D4901F004FCBF
:1003600032460C4920460CF059FF2146012228460E
:10037000202301F005F9324628460749BDE87040C0
:100380000CF04CBF1C18002400000024241800248A
:10039000943100240D05040851160408704601F03C
:1003A0002DBB7046EFF30981EFF3088200F00F0CCC
:1003B000BCF10D0F01F07483BCF1090F01F07083E3
:1003C000DFF810C0DCF800C01CF0004F41F068837B
:1003D0009F4600002CED00E0014B1B68FFF7E1BFDA
:1003E00088260024014B1B68FFF7DBBF8C26002406
:1003F000014B1B68FFF7D5BF84260024014B1B6807
:10040000FFF7CFBF9C26002402490A6842F400325D
:100410000A608746FCED00E001480068FFF7F4BF82
:100420009426002401480068FFF7EEBF90260024C0
:1004300001480068FFF7E8BF98260024034B1030FE
:100440009B6843F82010BFF34F8F704700ED00E02A
:1004500070470000034B1A688242ACBF1A601860F4
:10046000704700BF74010124044B1B68180AC3F3D2
:10047000031300F070001843704700BF002000E035
:10048000064B1B681B0F012B02D100F001007047C7
:10049000034B184214BF012000207047002000E0E9
:1004A000010000E000F46843B3F5684F06D000F4A3
:1004B0007840A0F57043584258417047012070477A
:1004C00002680B689A4203D38CBF0120002070475A
:1004D0004FF0FF307047FEE730B5EFF30583094A70
:1004E000DBB29361084B1C6BD461D86A1062996AC5
:1004F00051625D6B95629D6BD5621C63D862996297
:1005000030BD00BFAC24002400ED00E0704740681F
:1005100008B503685B6D98470028D4BF0020012010
:1005200008BD01207047406808B50368DB6D984737
:10053000C0B208BD406803685B6E1847036818477F
:1005400070B51C4D6C6A14F0FF0631D01A4802F0E9
:1005500019FD1A4802F016FD304602F015FD23067B
:1005600005D5174802F00EFDA86A02F00DFDA6069B
:1005700002D5144802F006FDE00605D5124802F047
:1005800001FD286902F000FD210705D50F4802F0A2
:10059000F9FC286902F0F8FCA20702D50C4802F029
:1005A000F1FCE30704D50B48BDE8704002F0EABC5B
:1005B00070BD00BFAC2400242509060834090608D4
:1005C000490906085E09060878090608950906081B
:1005D000B4090608C509060870B51F4D6C6A240ADF
:1005E00014F0FF0636D01D4802F0CCFC1C4802F087
:1005F000C9FC304602F0C8FC220605D5194802F0B5
:10060000C1FCE86A02F0C0FCA30602D5164802F05D
:10061000B9FCE60605D5154802F0B4FC286902F0DD
:10062000B3FC200705D5124802F0ACFC286902F0A3
:10063000ABFC610702D50F4802F0A4FCA20702D56B
:100640000D4802F09FFCE30704D50C48BDE870405C
:1006500002F098BC70BD00BFAC240024C808060896
:1006600034090608490906085E09060878090608DB
:1006700095090608D7080608F20806080B090608B7
:10068000164B10B5DC8C44B3154802F07BFC1548C2
:1006900002F078FC204602F077FCA20502D5124851
:1006A00002F070FCE30502D5104802F06BFC200755
:1006B00002D50F4802F066FC610702D50D4802F032
:1006C00061FCA20702D50C4802F05CFCE30704D5EC
:1006D0000A48BDE8104002F055BC10BDAC2400240F
:1006E000DC09060834090608ED090608010A0608AF
:1006F000170A06082F0A0608530A0608660A06089B
:100700002DE9F04792F822309146956B012703F0CE
:10071000100304688046002BE7610BBF10260026FB
:100720004FF0320A4FF0100A06F108039B00EA1856
:10073000226004226260A3F120022A44A2600822FF
:10074000C4E90571E26003F1140103F1100203230F
:1007500029442A44636221621021226102F074FB61
:10076000C0F34020D9F838200D21504402EB80021C
:10077000404602F089FB5EB105F18003A3621023BD
:10078000C4E90B35C0356363C4E90E57BDE8F08793
:10079000064B8422314618461AF0F2F82123A06253
:1007A000E663C4E90B36C4E90D66EFE730180024B0
:1007B00008B507F049F8064B012118601A68054B87
:1007C0001A60054B1868BDE8084007F0D5B800BFAF
:1007D000D8180024E41800248026002410B504460C
:1007E00008210CF097FF204610BD0B6803604B6892
:1007F00043608B68836070470D4B1B681B0F012B98
:1008000002D140F00100704720F0604323F0030361
:1008100043F0010341B910F0020F14BF4FF0004044
:100820004FF08040184370474FF04040FAE700BF58
:10083000002000E0F8B50246FFF722FED0B91046CE
:10084000FFF7DAFF0546FFF70FFE0D4E00220D4FB2
:1008500002F16053824203F602034FEA83030CD095
:1008600034681968240F012C18BF39408D4205D017
:100870000132EDE74FF0FF35E5E700231846F8BDFC
:10088000002000E0FDFFFFDF13B50446019201F0F8
:1008900023FA3A21204601F0F9F99DF80410204688
:1008A00001F01AFA9DF80510204601F015FA9DF89E
:1008B0000610204601F010FA9DF80710204601F0BE
:1008C0000BFA3B21204601F0E1F902B010BD000017
:1008D000114B1B681B0F03F1606303F58173F0B5C7
:1008E0001B0106460D4F0E48984213D084683C40C9
:1008F000A2420DD10468A6420AD1D0F804C00D4628
:100900000024012D02D96D080134FAE7A44502D074
:100910001030E9E70020F0BD001000E0AFFD0F004F
:10092000201000E008B50F4B1B685B0711D50E4B7C
:100930006FF004001968FFF781FD0C4B6FF00100A8
:100940001968FFF77BFD0A4B4FF0FF301968FFF77E
:1009500075FD084AD36823F48023D3600022064B38
:100960001A6008BDA82400249426002490260024A0
:1009700098260024F0ED00E0A02600240C4B0D4941
:100980001868036810B59B6998470B4B1B785BB9D7
:100990000A4A012011684C689C4207D00A6802EBA1
:1009A000C30201339071F7E7002010BD0120FCE77E
:1009B000C0190024210A0408D41800243419002482
:1009C000F8B506460024FFF74FFDDFF850C004F1EC
:1009D0006052A04202F602024FEA820214D0DCF812
:1009E000005017682D0F07F00103012D01D11BB92D
:1009F000FB0F5BB10134EAE72B46FAE73046FFF71D
:100A0000FBFE10601046F8BD0022FBE73046FFF702
:100A100037FD0028F2D04FF0FF30F2E7002000E071
:100A200010B5114C2368DB071DD406F00DFF0F4AEB
:100A30001268904217D00E4A1268904213D006F006
:100A4000F1FE0C4B186803689B68984758B12368FF
:100A5000012243F020032360074B1A60074AD36842
:100A600043F40033D36010BDA82400248026002462
:100A700030190024C019002428180024F0ED00E0EB
:100A8000C3680BB19B681847704700002DE9FF4110
:100A900045688846284603F019FCB8F1000F18D0C5
:100AA000D5F83466032E14D8731C05EB061704AC76
:100AB000C5F8343607F2F457134B44F8108DA742AB
:100AC00003934FF00003CDE9013308D12046FFF72F
:100AD000D7FF284603F002FC04B0BDE8F081384699
:100AE000FFF7CEFF039B05EB0616C6F80036002B7A
:100AF000ECD05B68214638469847E7E72046FFF789
:100B0000BFFF16F0E7FD00BFFCFB05080E4B0028F9
:100B100010B59C6B4FF0010303FA04F301FA04F1E2
:100B200003F1FF3302EA030242EA0102D2B206DB1A
:100B300000F1604000F5614080F8002310BD00F036
:100B40000F00024B1A54F9E7AC24002414ED00E026
:100B5000024A136843F0040313607047A82400247A
:100B6000024B186800F00400704700BFA82400245E
:100B700000487047EC24002440F2911070470000B8
:100B8000034A034692E8030083E8030018467047CF
:100B9000B42400241A4B10B59A69033A032A2DD8BD
:100BA000DFE802F00222291F1C6A164802F0EAF967
:100BB000154802F0E7F9204602F0E6F9002C02DAC7
:100BC000124802F0DFF9A20702D5114802F0DAF963
:100BD00063000BD50F4802F0D5F9FFF7B1FCFFF722
:100BE000FBFCFFF74DFD01E0FFF7AAFC0A48BDE85A
:100BF000104002F0C7B9FFF7EFFCF7E710BD00BFE8
:100C0000AC240024810A060834090608910A060863
:100C1000A20A0608B90A060843220608114B03F582
:100C2000C16030B50246104C194604330D68A54228
:100C300002D183421946F7D1511A0C4AD36B99421B
:100C40000B4BC8BFD1631A6822F020021A601A68E1
:100C500022F001021A60074AD36823F40033D360FC
:100C600030BD00BFA01E0024EFBEADDEAC240024CA
:100C7000A8240024F0ED00E00F21014802F0E4B8C0
:100C8000AC24002402460F21014802F0FDB800BF49
:100C9000AC24002408B5FFF7EFFF034B1B6B181AB9
:100CA00018BF012008BD00BFAC240024BFF34F8F44
:100CB000044B18681A6800F0020022F002021A6061
:100CC000704700BFA824002408B502F07FFD01464C
:100CD000FFF7ECFF18B10A20FFF7BCFB0021084624
:100CE00008BD000038B50C4C00252560FFF7C4FF97
:100CF000FFF7EAFF23680BB1256038BDFFF7D2FB91
:100D000030B1FFF7B9FF0430BDE83840FFF7BABF94
:100D1000FFF7B2FF0230F7E77401012438B50F4D39
:100D200000242C60FFF7A8FFFFF7CEFF2B6813B15C
:100D300020462C6038BD4BF6AB63984209D04BF689
:100D4000FF63984207D0B0F53E4F0CBF0320002050
:100D5000F0E70120EEE70220ECE700BF7401012478
:100D600070B5314CD4E9065313F0020117D0FFF7E8
:100D7000D5FF03284FF000030CBF02210121E360DF
:100D80002A4B21721B689E064AD4033D092D47D881
:100D9000DFE805F02B2B2D2F46464646463113F053
:100DA000040320D0224B23481A680B46120F02F18D
:100DB000606202F5817212019042E0D08668F6010D
:100DC0000BD5836803F00F03062B08D0072B08D040
:100DD000052B0CBF0421002103681030ECE7032130
:100DE000FAE70521F8E71946C9E70B2070BD0A208C
:100DF000FCE70420FAE7E369D8060BD459070BD4C3
:100E00009A070BD4DB070DD503230B4A02EBC30370
:100E10001879EBE70023F8E70123F6E70223F4E76C
:100E20000220E3E71120E1E7AC240024A8240024F9
:100E3000001000E0201000E06008060838B5144DEE
:100E400004460721284601F0FFFF072102462046FD
:100E5000FFF71AFD0D21284601F0F6FF0D2102468D
:100E60002046FFF711FD0E21284601F0EDFF0E216F
:100E700002462046FFF708FD0F21284601F0E4FF57
:100E80000F2102462046BDE83840FFF7FDBC00BFF9
:100E9000AC24002470B50229104D4FF00004064622
:100EA0002C6003D013D3042911D801242B68A3B9D3
:100EB00021463046FFF7BEFC78B921463046FFF7A1
:100EC0007FFD50B90820BDE87040FFF7C3BA042089
:100ED0004FF0FF34FFF7BEFAE8E770BD740101245C
:100EE00038B500230C4D04462B60FFF7EDFE2B6850
:100EF0008BB9FFF7D7FA054601462046FFF79AFC63
:100F000048B929462046FFF75BFD20B90820BDE817
:100F10003840FFF79FBA38BD7401012438B5022963
:100F20000C4C4FF000030546236011D00AD304296E
:100F300008D80121246824B92846FFF77BFC00B1BA
:100F4000046038BD0420FFF785FA4FF0FF31F1E768
:100F50001946EFE77401012438B5084C0023054613
:100F60002360FFF7B1FE24683CB9FFF79BFA014606
:100F70002846FFF75FFC00B1046038BD740101240E
:100F800038B5144C23681A070BD523681421124D69
:100F900023F008036A6B2846236001F075FF0023E5
:100FA0006B632368DB060AD5236823F010032360F4
:100FB0000A4B9B68D86A20F00100FFF7CDFF084A72
:100FC000D36823F48023D360236823F004032360D1
:100FD00038BD00BFA8240024AC24002400ED00E0AC
:100FE000F0ED00E00000000038B5394B36A1D1E942
:100FF000000103F5C162E3E902019342FBD14FF422
:10100000EA720021334819F0BBFC334AFF23334C0A
:101010003049002082F8203092F82030D26863F006
:10102000FF032F4DC2F30222DB4302F1010214BF82
:10103000B3FA83F32023C3F1200393422CBF8B63C5
:101040008A63E368274A43F08073E360264B1B689A
:101050001B0F03F1606303F581731B01934209D0F9
:101060001060103242F80C0C52F8081C294042F86B
:10107000081CF3E7FFF7F8F91C4B1B68C3F30323C5
:1010800018440023194603F16052984202F6020206
:101090004FEA820202D011600133F4E7134A136869
:1010A00043F003031360FFF76BFFE368FF226FF069
:1010B000030023F400331146E360FFF727FDE368E4
:1010C00043F48033E36038BDEFBEADDEEFBEADDE8E
:1010D000981E0024AC24002400ED00E0F0ED00E0B8
:1010E00050FEFFFF201000E0001000E0002000E0B4
:1010F00038B50C4C0C4D236823F002032360FFF736
:10110000BBFD2863FFF73CFFAB690F2B234603D9D8
:10111000226842F0200222601A6842F001021A603E
:1011200038BD00BFA8240024AC240024022A98BFA4
:101130001D4B70B598BF9D5C01F1FF3388BF002542
:1011400006460B420C461BD14B4230EA030317D133
:101150006B1F022B14D82A46FFF7BAFB00BB134BB8
:1011600013491B681B0F03F1606303F581731A01B8
:10117000914216D08B6813F00F0306D01031F7E7B9
:101180000420BDE87040FFF765B9012C02D964085E
:101190000133FAE74B604A689A4202D10E608D60D3
:1011A00070BD0820EDE700BF08FC0508001000E056
:1011B000201000E0022A10B598BF104B01F1FF3457
:1011C0008CBF00229A5C0C400AD14B4230EA0303E8
:1011D00006D1531F022B03D8FFF77AFB28B910BDA5
:1011E0000420BDE81040FFF735B90460446083680F
:1011F00023F4D77323F001038360F0E708FC0508AC
:1012000040F2496070470000004870470BFC050839
:10121000BFF34F8F0549064BCA6802F4E0621343DF
:10122000CB60BFF34F8F00BFFDE700BF00ED00E0D4
:101230000400FA05B1F1805F38B504460D4608D2C6
:10124000C8000CF059FA002320606360C4E902531F
:1012500038BD16F067F900002DE9F74F0746002466
:10126000DFF864804FF0020A7B68A34226D94FEA78
:10127000C40B3E6806EB0B05AB7963B156F834300E
:1012800095F90410184695F90590019306F0F0FAC7
:10129000019B83F8219056F80B60D8F828309E42C5
:1012A0000AD1AB7943B9074B1B682BB102213046F9
:1012B00006F0DEFA86F821A00134D5E703B0BDE8D8
:1012C000F08F00BFA0260024240C00241FB50023AB
:1012D000044604A80393054B40F8081D0093082317
:1012E000D4E9001217F0E0FE04B010BDC1040408F8
:1012F0002DE9F74FDFF8808206F0A6FADFF87C923E
:10130000382106F0B5FA4FF0FF320021012006F037
:101310006DFB00281EDC7F497F4803F022FF7F49D8
:101320007D4803F01EFF7E497B4803F01AFF0A2226
:101330004FF4E271784803F06AFF7A49764803F087
:1013400010FF7949744803F00CFF7849724803F0A4
:1013500015FFFEE7D8F80030F3B96E496E4803F088
:1013600000FF6E496C4803F0FCFE6D496A4803F0CB
:10137000F8FE0A2240F2C511674803F048FF6949A8
:10138000654803F0EEFE6A49634803F0EAFE6749E8
:10139000614803F0F3FEFEE7664E0024D9F8003002
:1013A00032685C60DC603360C9F8002006F0C2FA85
:1013B000614B8246196888421ED95649564803F047
:1013C000D0FE5649544803F0CCFE5549524803F02C
:1013D000C8FE0A2240F2DD114F4803F018FF5149C0
:1013E0004D4803F0BEFE55494B4803F0BAFE4F4945
:1013F000494803F0C3FEFEE7514FDFF850B13868AB
:1014000006F0A8FAA2453BD03B6853F824504D4B58
:101410001B689D4232D0DBF800309D422ED028461A
:1014200006F000FA95F9202095F921302946D9F8DF
:10143000000001920093FFF749FFDDE9003228B177
:10144000817919B990F9042090F905303949D1F81A
:1014500000C0DCE9011081420CD2DCF800E00EEBA8
:10146000C1004EF831500131437100230271837184
:10147000CCF804100121284606F0FAF90134C1E73E
:1014800030680822304B314CD0E9000119F0D8FA0D
:101490002F49D8F80020A1F11400FFF731F9206896
:1014A00006F016FA06F0D0F9182106F0E1F92948FD
:1014B00001F0F8FF06F0C8F9382106F0D9F92068E4
:1014C00006F0EEF9244B1B685B071BD5234B6FF02E
:1014D00004009A68D16A224A11609A68916B214A85
:1014E00011609B682049DA6B204B1A60FEF7A6FF5B
:1014F0001F496FF00100FEF7A1FF1E494FF0FF30BA
:10150000FEF79CFF3068FFF7A7FE0023C8F8003005
:10151000F9E600BFA9070608C42A0024BC0706088C
:10152000242206082D080608640706082F08060866
:101530007307060834190024E818002489070608F0
:101540007C19002480260024C104040830190024DA
:10155000C0240024AC240024A824002400ED00E0D2
:1015600094260024902600241904040898260024B8
:101570002504040831040408E41800243819002460
:10158000F8B51C46214B0746186858BB2048052C67
:101590001960027004D91F4B9C4202D915F0C2FF9A
:1015A00006241D4DA0000CF0A7F81C4B05F11006F9
:1015B000214618602846FFF73DFE21463046FFF7DA
:1015C00039FE174B17481D60174B1E60174B1C60E8
:1015D00001F064FE164A0021164806F00BF9164A7F
:1015E000106008B93846F8BD06F05AF9134A0021D0
:1015F000134806F0FFF8134B18601B68002BF1D05E
:1016000000221149114801F06FFEEBE7C0190024D8
:10161000D4180024FEFFFF1FB41800247C190024F6
:1016200034190024CA0D060838190024E8180024CB
:1016300080080608D704040830190024A408060806
:10164000F1120408802600247D0904084D030408D3
:101650000C4C206808B508B10CF06FF80025206923
:101660002560C4E9015508B10CF067F82561C4E9AB
:101670000555054C206808B10CF05FF80023236085
:1016800000BEFEE7B41800247C19002410B5002227
:10169000214CFF212260FFF7A7FC2368002B39D1E2
:1016A0001E4A1F4913601F4A1F481360082201F099
:1016B000B8FB08221D491E4801F0B3FB1D4B6FF01B
:1016C0000C009A68D1681C4A11609A6811691B4A1B
:1016D00011609A6851691A4A11609B6819499A69A0
:1016E000194B1A60FEF7AAFE18496FF00B00FEF7BF
:1016F000A5FE17496FF00A00FEF7A0FE15496FF02E
:101700000900FEF79BFE14496FF00300BDE810408E
:10171000FEF794BE10BD00BF740101242C190024F3
:10172000EC180024A0260024AC24002480190024F6
:10173000DC18002400ED00E0882600248C2600241C
:1017400084260024D90304089C260024E503040809
:10175000F1030408FD0304089D03040808B5034BC6
:10176000186803689B68984708BD00BFC01900242B
:1017700008B5034B18680368DB68984708BD00BFCD
:10178000C019002410B5064C206803689B68984770
:101790000028F9D0206803681B69984710BD00BF76
:1017A000C0190024034BC1B21B681A68184652695D
:1017B000104700BFC019002440F20E5070470000CF
:1017C0000048704755020608002070470020704707
:1017D000014B1868704700BFE4180024054B002235
:1017E0001B685868DA6018B11A6801211068D9605E
:1017F000704700BF34190024064B1B68DA6859682B
:101800008A423FBF501C1968D86051F8320028BF87
:10181000002070473419002408B5044B01461868AD
:10182000FFF754FD003018BF012008BD3419002413
:1018300013B50446FFF7F0FF002835D0204605F029
:10184000F1FF6278232A37D00FD8022A2ED005D88C
:10185000002A3DD0012A1BD01E4A1AE0042A29D0B2
:1018600026D3132AF8D11C4A13E0632A2AD007D8BA
:10187000432A23D0532A23D0332AEDD1174A08E034
:10188000832A21D0932A21D0732AE5D1144A00E07B
:10189000144A104B40210092002818BF0346124AF8
:1018A000124819F065FD114802B010BD104AF0E76A
:1018B000104AEEE7104AECE7104AEAE7104AE8E778
:1018C000104AE6E7104AE4E7104AE2E7104AE0E788
:1018D000104ADEE7CA0D0608EF0A0608080B0608DC
:1018E0004B0B0608CE0A0608810B06083C1900249B
:1018F000D40A0608DC0A0608E40A0608FC0A0608F8
:101900001B0B06082D0B06083A0B06085D0B060894
:101910006F0B0608C50A060810B50446FFF77CFFE2
:1019200048B1064B1B689C4206D005482246054933
:10193000FEF7E6FE024810BD0348FCE7E418002469
:10194000DC1800242C180024AC240024012070474B
:1019500038B50446134B0D46621C186809D141681E
:10196000002399421CD0026802EBC3020133957137
:10197000F7E7A31C0BD141680023994210D00268FD
:1019800002EBC302947904B995710133F5E721465E
:10199000FFF79CFC20B1022D857101D1024B1C6028
:1019A00038BD00BF34190024A0260024104B2DE9B7
:1019B000F0411D6800240F4B0F4F1E686B68A34257
:1019C00013D92B6830464FEAC40853F83410FFF798
:1019D0007DFC40B12B68827943449A718379022B54
:1019E00001D103683B600134E8E7BDE8F08100BF46
:1019F0003419002438190024A026002400F00B001C
:101A000010B50928FDD11F4B1A6882B11E49CA685A
:101A100042F08072CA601D490A6842F003020A60FF
:101A200053E8002F511E43E8001000B1F8E7184BAF
:101A30001B6B33B9174B1B681BB9174C23687BB959
:101A400010BD164B1C6814F0010416D1FEF744FDBE
:101A5000FEF768FF0F4B1C60BDE81040FEF7A8BE04
:101A600005F0F2FE23688342074BDA680CBF42F4AC
:101A7000802222F48022DA60E2E7054B1A6B1A63B7
:101A8000DEE700BF2C190024F0ED00E0002000E0AC
:101A900000ED00E028180024A0260024A82400243B
:101AA000F8B500F00B0305460C461746092B1ED06F
:101AB000274B53E8002F511C43E8001000B1F8E712
:101AC000244B25491A6B1A634FF00042DA62234A0D
:101AD000D36823F08073D3600B6823F0030343F0D3
:101AE00002030B60D36843F40033D360F8BD1C4E8F
:101AF0003368DA0723D505F0A7FE1A4B1B6883422B
:101B00001DD1336843F002033360124B9B6A5B05BF
:101B10000BD405F00F050D2D18BF3C46A2691088A7
:101B2000FEF7C0FC48B10432A2610A4B1A6B1A637B
:101B3000DA6ADA629A6A9A62D8E70232F4E7FEF762
:101B4000CBFCFEF7EFFEBDE8F840FEF731BE00BF6C
:101B50002C19002400ED00E0002000E0F0ED00E092
:101B6000A824002480260024014AC0E900217047EF
:101B700044080608A0F16103052B01D857387047C7
:101B8000A0F14103052B01D8373870473038C3B274
:101B9000092B07D9044A4FF0FF301368022BB8BF56
:101BA00002231360704700BF740101240A440160DE
:101BB000C0E901217047036883607047D0E90123C1
:101BC000934238BF43607047D0E90103834294BF1A
:101BD000C01A00207047000008B50246FFF7F4FF66
:101BE000884208D2536801339360034A1368012B7B
:101BF000B8BF0123136008BD74010124F8B50D4678
:101C00001C46114600230F4A0646136043682846C7
:101C100003FB04F7FFF7D8FF874284BF012313605B
:101C200013680BB10020F8BD336822462846984758
:101C30000028F7D072680120AB6802FB0434AC6066
:101C4000F1E700BF7401012470B5856806461446AB
:101C5000284619F003FE70B93046FFF7B5FFA042E1
:101C60000BD0285DA0F13A03012B06D9A0F12C037B
:101C70005842584170BD0020FCE70120FAE7D0E946
:101C80000102824294BF00200120704770B50023FA
:101C9000064D0E4601212B600446FFF79DFF2B6881
:101CA0001BB9A3685A1CA2601E7070BD7401012488
:101CB00070B5084E0024012105463460FFF78CFF03
:101CC000336823B9AB685A1CAA60187870BD2046E7
:101CD000FCE700BF7401012470B500230B4E0C46D5
:101CE000022133600546FFF777FF33686BB9AB68B5
:101CF000210904F00F045A1CAA60054A515C125DC8
:101D00001970AB68591CA9601A7070BD7401012468
:101D1000AC0B060838B500230F4C022105462360A2
:101D2000FFF75AFF236813B10021084638BDAB689E
:101D30001878FFF71FFF23680001C1B22BB9AB6809
:101D40005878FFF717FF0143C9B22368002BEBD186
:101D5000AB680233AB60E8E7740101242DE9F04180
:101D60000546174684680E4601EB0208464518D121
:101D70000021AC6011BB2846FFF726FF7B0098428C
:101D80001ED09A1C904209D314F81720322A05D18C
:101D90001C446178A1F13003594259410846BDE81D
:101DA000F0812846FFF7B6FF16F8013B984202D3B0
:101DB000DCD90121DDE74FF0FF31DAE70021EDE763
:101DC0000121EBE7F8B500230A4F0C4611463B60B2
:101DD00006461546FFF700FF3B6813B92544A542A8
:101DE00000D1F8BDB3685A1CB26014F8012B1A7008
:101DF000F5E700BF7401012438B505460C460846D6
:101E000019F0BEFC214602462846BDE83840FFF7DF
:101E1000D9BF38B505464C1E14F8011F01B938BDAD
:101E20002846FFF759FFF7E72DE9F8430025174F3C
:101E300004462E46A946B8462046C7F80090FFF74C
:101E400037FF3B684BB9FFF795FE3B6853B1A3687A
:101E50002268934201D9013BA360D8F8003023B92E
:101E60000136E9E700EB0515F7E70023C8F8003075
:101E7000D4E901329A4288BFA3601EB903233546D4
:101E8000C8F800302846BDE8F88300BF740101247B
:101E90002DE9F84380460E4619B9BDE8F843FFF72F
:101EA0001BBF4FF07F4300241E4203D101341B0AA5
:101EB000042CF9D1C4F103040A4F4FF00009E500E6
:101EC000002C0CDB26FA05F14046C7F80090013CD7
:101ED000C9B2083DFFF700FF3B68002BF0D0BDE81A
:101EE000F88300BF740101240A4A002310B5044698
:101EF0001360FFF769FE08B901231360106838B951
:101F0000A3681A788A4202D101330120A36010BD70
:101F10000020FCE774010124F8B5124D00242D21A6
:101F200007462C60FFF7E0FF2B68064663B938468A
:101F3000FFF77AFF2B6893B946B9002803DA032329
:101F40006FF000402B60F8BD2046F3E7B0F1004F82
:101F500085BF03234FF0004040422B60F3E7002091
:101F6000F1E700BF74010124084B73B505460E4626
:101F70006C4693E803001346324684E80300294682
:101F80002046FFF73BFE02B070BD00BF9C0B060869
:101F9000084B73B505460E466C4693E8030013469E
:101FA000324684E8030029462046FFF727FE02B0A8
:101FB00070BD00BFA40B0608034B1B68042B0CBFAD
:101FC0000248034801F0C6B974010124BC0B06089D
:101FD000C00B060870B50646104C01F001FA00234C
:101FE00005462360FFF764FE23683072ABB92C21ED
:101FF000284600F0C7F823687BB9284600F0B4F8FB
:10200000236830604BB92C21284600F0BBF82368C8
:102010001BB9284600F0A8F8706070BD7401012457
:10202000D1E9003110B50022084C22600246184662
:10203000FFF77CF823681BB1BDE81040FFF7BCBF79
:102040000348BDE8104001F085B900BF74010124C8
:1020500012310608D1E9003110B50022084C226087
:1020600002461846FFF7A6F823681BB1BDE81040EA
:10207000FFF7A2BF0348BDE8104001F06BB900BFF5
:1020800074010124123106081FB50023164C01A863
:102090002360FFF79FFF23681BB1144801F05AF932
:1020A00010E09DF80C30313B032B1BD8DFE803F028
:1020B000020F1417DDE90101FEF7ECFE236823B1DE
:1020C000FFF77AFF002004B010BD0948E6E701A938
:1020D0000020FFF7A5FFF5E701A90120F9E701A915
:1020E0000220F6E70348D9E774010124BC0B060877
:1020F00012310608CA0D06081FB50023164C01A8A8
:102100002360FFF767FF23681BB1144801F022F931
:1021100010E09DF80C30313B032B1BD8DFE803F0B7
:10212000020F1417DDE90101FEF7F8FE236823B161
:10213000FFF742FF002004B010BD0948E6E701A9FF
:102140000020FFF787FFF5E701A90120F9E701A9C2
:102150000220F6E70348D9E774010124BC0B060806
:1021600012310608CA0D060810B50023044C23607E
:10217000FFF75AFE2368002B18BF002010BD00BFD8
:102180007401012408B5FFF7AFFE28B9034A1368AC
:10219000042BB8BF0423136008BD00BF74010124E1
:1021A00070B50023094C0D4606462360FFF7DCFF9F
:1021B000236828604BB92C213046FFF7E3FF2368E2
:1021C0001BB93046FFF7D0FF686070BD7401012471
:1021D00038B50023064C05462360FFF7E1FF23686E
:1021E0002BB928463A21BDE83840FFF7CBBF38BDB0
:1021F0007401012408B5FEF74DFD08B1002008BDAB
:10220000FEF78CFD0328F9D1FEF76CFD0420F6E7FC
:1022100070B506460D46FFF799FB20B101214FF03E
:10222000FF30FFF795FBFFF7E5FF044616B12846A0
:10223000FEF728FD44F0030070BD000038B5094DDD
:10224000002401F0CDF82C60FFF78EFF2B680146CB
:1022500023B90120BDE83840FFF7DABF2C602046E3
:10226000F8E700BF7401012470B501F0B9F8134D0F
:10227000002306462B60FFF777FF2C68CCB9304669
:10228000FFF7A2FC68B13B213046FFF72DFE40B1BD
:102290003046FFF769FF2C680146B4FA84F46409FC
:1022A00000E000212B6823B92046BDE87040FFF70D
:1022B000AFBF034801F04EF8002070BD7401012447
:1022C000BC0B060808B5FFF741FB20B101214FF018
:1022D000FF30FFF73DFBFFF78DFF024801F03AF8B2
:1022E000012008BD1231060870B501F079F80546E5
:1022F000FFF712FE2C2106462846FFF7F5FD04469F
:10230000A8B12846FFF708FE0222044609492846DC
:10231000FFF72AFE05462146304601F05BF82846C5
:1023200001F046F8044B002203201A6070BD0546F8
:10233000F1E700BFC40B06087401012437B501F0B2
:102340004FF80D4C0023694605462360FFF728FF30
:1023500023682BB1094800F0FDFF002003B030BD19
:1023600000F0E8FF2846DDE9001200F0C9FE002871
:10237000F3D10348EFE700BF74010124BC0B06084A
:10238000C70B060837B501F02BF80F4D002369463F
:1023900004462B60FFF71CFF2B682BB10B4800F0A5
:1023A000D9FF002003B030BDDDE90012204600F067
:1023B000E9FE08B10648F2E72046FFF760FC08B1E5
:1023C0000448ECE70448EAE774010124BC0B060862
:1023D00012310608CB0B0608C70B060837B500F00C
:1023E000FFFF0F4D0023694604462B60FFF7F0FE08
:1023F0002B682BB10B4800F0ADFF002003B030BDBF
:10240000DDE90012204600F009FF08B10648F2E7B6
:102410002046FFF734FC08B10448ECE70448EAE73B
:1024200074010124BC0B060812310608CB0B060808
:10243000C70B06082DE9F843064600F0D1FF074612
:102440007468D6E90285444593BF0024A4EB0804D0
:102450004FF06D094FF06C0998BF254600F06AFFF8
:102460003846FFF7B1FB854228BF05463846AC42E7
:102470003CBF4FF06C0925464946FFF707FC316821
:102480002A4638464144BDE8F843FFF79BBC38B5BF
:10249000054600F0A9FF044625B96C21FFF7F6FBBD
:1024A000002038BD6D21FFF7F1FB29462046FFF7DC
:1024B000EFFC2046FFF788FB0828F1D9FFF79CF9CD
:1024C00005460028ECD02C212046ECE708B507484B
:1024D00000F058FD064800F055FD064800F052FD9A
:1024E000054800F037FF002008BD00BFD80B0608E4
:1024F000F60B0608FE0B060812310608F7B50E4665
:102500000546102200213046214C18F039FA3A21B4
:102510002846FFF7E9FC30B92368042BB8BF042331
:10252000236003B0F0BD04221A492846FFF71CFDC2
:102530000028F1D03A212846FFF7D6FC0028EBD03E
:10254000002315490A2228462360FFF70DFD0746A0
:102550003A21284647B1FFF7C7FCB8B92368042BD6
:10256000B8BF0423236004E0FFF7BEFC0028F5D0C9
:10257000384623683060002BD3D169462846FFF7E0
:102580000FFE009BB360019BF360CAE70248F0E7CF
:1025900074010124D80C0608ED0C06087FB500F084
:1025A0001FFF092269490446FFF7DEFC064678B1A1
:1025B000FEF7E2FA054600F017FF04466449FFF70C
:1025C0001BFC29462046FFF763FC002004B070BDC9
:1025D000042260492046FFF7C7FC00284DD000F0D8
:1025E000FFFE3A210446FFF77FFC18B95A4800F075
:1025F000B1FEEAE70A2259492046FFF7B5FC054635
:10260000C8B1574C00F0ECFE69462660FFF776FF34
:1026100023681BB9009B0BB1042323602368002BA4
:10262000E4D1FFF7CDF80090FFF7C6F801906846B7
:10263000FFF700FFC9E708224A492046FFF794FC4C
:10264000C8B1474C00F0CCFE69462560FFF756FF45
:1026500023683BB9009818B1434918F025FF08B129
:10266000042323602368002BC0D1FEF7CDFD00902A
:10267000FEF7C6FDDAE73D48B9E70B223C492046A4
:10268000FFF772FC30B1FFF7A9F80028F3D0FFF78D
:10269000FEFE9BE70B2237492046FFF765FC10B191
:1026A000FFF7AAF8F3E70F2233492046FFF75CFC57
:1026B000A0B100F095FE2C210446FFF715FC002880
:1026C00094D02046FFF7B0FBFFF7B2F8044600F0C5
:1026D0008BFE64B32146FFF79CFB76E70422274973
:1026E0002046FFF741FC0028C5D000F079FE2C21E0
:1026F0000546FFF7F9FB00283FF478AF0522204993
:102700002846FFF745FC044630B100F02FFE1D4877
:1027100000F038FC1C486AE709221C492846FFF7EC
:1027200037FC30B1FEF736FA174800F013FE2046AA
:102730004CE7042216492846FFF72AFC10B1FFF7A0
:10274000C5FE43E7134800F01DFCF8E7690C0608D6
:10275000A00C0608830C0608BC0B06080F0C060824
:1027600074010124CF0B06081A0C0608CA0D0608CE
:10277000880C0608940C0608730C0608640C0608FE
:10278000DD0C0608250C060812310608E30C0608C5
:102790000A0C0608440C060873B500F015FE054641
:1027A00000F022FE0446FFF713F8542106462046A7
:1027B000FFF76CFA29462046FFF78EFA7EB11C49D6
:1027C0002046FFF719FB3A212046FFF75FFA314612
:1027D0002046FFF75DFB3B212046FFF757FA052D0A
:1027E0001CD16846FEF7CCF99DF80030042B05D0CB
:1027F000052B1BD0032B11D10E4900E00E492046BA
:10280000FFF7FAFA3A212046FFF740FA01992046ED
:10281000FFF73EFB3B212046FFF738FA2046FEF744
:102820000DFB00F0E9FD022002B070BD0349E6E7B0
:10283000A3150608000D0608F80C0608FF0C06088C
:1028400010B500F0A9FD044600F0CEFD014620467B
:1028500000F038FB002010BD10B500F0C1FD0446AB
:1028600000F09AFD214600F052FB2046FFF707FAE0
:1028700020B1034800F06EFD002010BD0148F9E7CB
:10288000CB0B06081231060810B5FFF7D7FC43073B
:10289000044603D5BDE81040FFF77EBF48B1FFF7FF
:1028A00055F820B1FEF794FF0221FFF751F8FEF72B
:1028B0004FF9204610BD10B5FFF7D6FC430704467C
:1028C00003D5BDE81040FFF767BF48B1FFF73EF8FA
:1028D00020B1FEF77DFF0221FFF73AF8FEF738F945
:1028E000204610BD38B500F07BFD134C0023054693
:1028F0002360FFF7DDF923682BB9672808D004238C
:102900002360236813B10D4800F024FD002038BD7A
:102910002846FFF789FA2368002BF4D1FEF7FCFF65
:1029200020B92368042BB8BF0423E9E700F03AFD7F
:10293000034800F00FFDE4E774010124BC0B060816
:102940001231060810B500F04BFD0D4C002323603A
:10295000FFF76AFA23683BB9FEF75EFF58B92368B0
:10296000042BB8BF04232360236813B1054800F08B
:10297000F1FC002010BD044800F0ECFCF4E700BFBF
:1029800074010124BC0B060812310608F8B5044690
:1029900008460D46FFF718F918B900232360237184
:1029A00019E03A212846FFF79FFA0028F5D00222C5
:1029B0000B492846FFF7D8FA064618B100232360D2
:1029C000FF23ECE7074F38602846FFF72DFA3B68F6
:1029D000206013B126712046F8BD0123DFE700BF58
:1029E000160D06087401012438B5037C0546022B38
:1029F00009D0032B0BD0012B13D10021BDE83840A7
:102A00000846FFF705BCBDE83840FFF73DBFFFF7BC
:102A10003BFF044618B105F1080000F0AFFC20466A
:102A200038BD0248002400F095FCF8E7BC0B06080E
:102A30002DE9F0438BB00C46142200210546684670
:102A400017F09EFF2046FFF733F963281BD00DD8FF
:102A50004328484F28D0532873D0464A2E466C4608
:102A60001368042BB8BF0423136018E0722830D019
:102A70007328F2D1214605A8FFF788FF0023CDE98E
:102A80000733022307E0214605A8FFF77FFF002355
:102A9000CDE9073301232E4605AC8DF824300FCC49
:102AA0000FC62368336045E0002620463E60FFF7EE
:102AB00031F93B6853B9214605A8FFF767FF059A2E
:102AC0009DF9183005928DF81830E0E7334632460C
:102AD000F8E70023DFF89C802046C8F80030FFF7B5
:102AE000A3F9D8F800308146002B3FD12C21204695
:102AF000FFF748FBD8F80060002E37D12046FFF7DB
:102B000093F9D8F800300746C3B9214605A8FFF766
:102B10003DFF059A9DF918308DF8183005AE032356
:102B200005922C468DF82430CDE907970FCE0FC4BF
:102B30003368236028460BB0BDE8F0833346324645
:102B4000EAE7002620463E60FFF7E4F83B6853B909
:102B5000214605A8FFF71AFF059A9DF9183005923E
:102B60008DF818308AE733463246F8E700273B46AF
:102B70003A46D1E77401012438B5037C04460BB909
:102B8000002038BDFEF7E2FE58B994F9043033B3A3
:102B9000FEF7DCFE78B194F904305A1C16D10320FC
:102BA000EFE794F90430012BEFD12568FEF710FE12
:102BB0008542E5D1E9E794F90430012BEBD1256892
:102BC000FEF706FE8542E6D00220DAE7012BD7D1D8
:102BD0002468FEF7FDFD8442D2D10420D1E7012014
:102BE000CFE700002DE9F04399B000F0F9FB052292
:102BF00081490446FFF7B8F9064630B100F0F4FB0E
:102C00007E49FFF7F9F800249AE0204604227C4927
:102C1000FFF7AAF90446002800F0EA8014223146A2
:102C200009A806AF17F0ACFE142231460EA817F023
:102C3000A7FE744C00F0D4FBB146804607C826605E
:102C400087E807004046FEF7BFFF002846D1404610
:102C5000FEF7BAFF58B9FEF779FE002874D19DF847
:102C60003430002B70D19DF84830002B6CD1664871
:102C700000F070FB2368042BB8BF0423236047E0F7
:102C80009DF85C300136012B15D0DBD3032BD9D84E
:102C90000EA8FFF771FF054613A8FFF76DFF8542E9
:102CA000D0D20DF14C0C0EADBCE80F000FC5DCF816
:102CB00000302B60C6E709A8FFF75EFF054613A8A2
:102CC000FFF75AFF8542BDD213AD0DF1240C0FCD95
:102CD000ACE80F002B68CCF80030B3E73B2140464E
:102CE000FFF702F90028B2D041466846C4F80090C8
:102CF000FFF79EFEEC4613ADBCE80F000FC5DCF8F5
:102D000000302B602368002BBAD03F4800F022FB34
:102D10002368002B7FF477AFFEF718FE00285ED003
:102D20009DF83430BBB99DF84830A3B9002438462B
:102D3000FEF74AFF20B13B213846FFF7D5F8B0B97E
:102D4000204619B0BDE8F083FEF700FE0028DFD072
:102D5000002EDDD18BE7FFF74DFA9DF84830002BB0
:102D6000E4D04307E2D5FFF717FD0446E8E76E46D7
:102D70003946684613ADFFF75BFE0FCE0FC53368CB
:102D80002B609DF95030A3B1012B15D001330CBF3E
:102D90004FF0FF3000209DF85C50022D0ED0032D27
:102DA00012D0012D19D12946FEF7D2FD03252C435F
:102DB000BDE76FF00100EEE71398ECE72946FEF758
:102DC000C7FDFDF7C5FEF1E70221FEF7C1FDFDF7E6
:102DD000BFFE15A800F0D2FAE9E70025E7E79DF865
:102DE00048301BB10EA8FFF7FFFDBEE709A8FAE7C0
:102DF000064800F0AFFAA3E71E0D0608060D060808
:102E0000190D060874010124BC0B0608CA0D06083A
:102E100008B5FEF79BFD18B1BDE80840FEF7C6BD3A
:102E200008BDC0E900127047002310B51A46446877
:102E3000944201D1184610BD016801EBC201013274
:102E400049680B44F4E70000002270B51346466859
:102E50009E4207D10B4A00201368012BB8BF012303
:102E600013600AE0056805EBC3056C6814448C42E6
:102E700004D9891A2B6853F8210070BD013322460A
:102E8000E6E700BF74010124F0B50024476823463B
:102E90009F4206D10A4A1368012BB8BF0123136071
:102EA0000AE0066806EBC306756825448D4204D91E
:102EB000091B336843F82120F0BD01332C46E7E7B6
:102EC00074010124F7B507460D460024FFF7ACFF57
:102ED0000646B44201D103B0F0BD21463846FFF7A3
:102EE000B3FF0190C1B22846FEF7F6FE9DF805102B
:102EF00028460134FEF7F0FE9DF806102846FEF73E
:102F0000EBFE9DF807102846FEF7E6FEE1E7F7B571
:102F100006460D460024FFF787FF0746BC421AD03D
:102F20002846FEF7F7FE8DF804002846FEF7F2FE6D
:102F30008DF805002846FEF7EDFE8DF806002846C0
:102F4000FEF7E8FE8DF807002146019A304601346D
:102F5000FFF79AFFE2E703B0F0BD38B5054600F091
:102F600043FA04464F21FEF791FE29462046FEF71C
:102F700050FF2046FEF783FE18B9BDE8384000F048
:102F80003BBA38BDFFF7E9BF10B586B00B22044647
:102F9000694603A8FEF70AFE03A80849FEF72CFFBE
:102FA000214603A8FEF774FF002103A8FEF76EFE7A
:102FB0006846FFF7D2FF06B010BD00BF240D06081B
:102FC0002DE9F04107460E4615460024AC4206EBBB
:102FD000040002D12046BDE8F08100F0F9FB8046F4
:102FE000FDF764FE0028F5D141463846FEF774FE31
:102FF0000134EBE72DE9F84307460C468E180E4DD9
:103000004FF00008B44201D1012008E03846C5F86D
:103010000080FEF77FFE2B68014613B10020BDE85B
:10302000F883204604F1010900F0D8FBFDF73EFECD
:103030000028F3D14C46E5E7740101242DE9F8435B
:1030400006460C468F18174D4FF00008BC4201D1C0
:10305000012016E03046C5F80080FEF729FED5F8BD
:103060000090B9F1000F09D17D2807D13046FEF755
:103070001FFE2B683BB980F02000C0B22B6823B143
:103080000020BDE8F8834846F8E70146204604F1F1
:10309000010900F0A3FBFDF709FE0028F0D14C4622
:1030A000D4E700BF740101242DE9F84306460C461D
:1030B0008F18124D4FF00008BC4202D10120BDE82C
:1030C000F8833046C5F80080FEF7F2FDD5F8009091
:1030D000B9F1000F09D17D2807D13046FEF7E8FD90
:1030E0002B683BB980F02000C0B22B6823B904F8EC
:1030F000010BE1E74846F8E70020E0E7740101240E
:10310000022AF7B50446154606D0042A1CD003B09F
:10311000BDE8F040FFF754BF11F00107F7D10846B2
:1031200000F054FB0646FDF7C1FD48B9F1B2204658
:10313000FEF7D2FDC6F307212046FEF7CDFD00E0E5
:103140003D46284603B0F0BD11F00306DFD1084626
:1031500000F03AFB0190FDF7A9FD88B99DF8041035
:103160002046FEF7B9FD9DF805102046FEF7B4FD98
:103170009DF806102046FEF7AFFD9DF80710DBE72F
:103180003546DEE7022A2DE9F34707460D4606D00D
:10319000042A25D002B0BDE8F047FFF72BBF11F09D
:1031A0000104F7D11C4E3460FEF7B4FD33688DF88E
:1031B000040033B93846FEF7ADFD33688DF80500DD
:1031C0001BB1204602B0BDE8F087BDF804102846C8
:1031D00000F002FBFDF76AFDB0FA80F46409F0E745
:1031E00011F00304D6D12646DFF82C80A2460DF15B
:1031F00004093846C8F800A0FEF78CFDD8F8003066
:1032000009F806000136002BDBD1042EF1D101991B
:10321000284600F0DFFADDE774010124022A13B525
:103220000C4604D0042A14D0FFF708FF0FE0CB07A8
:10323000FAD401A9FFF738FF48B1BDF804102046C1
:1032400000F0CAFAFDF732FDB0FA80F0400902B092
:1032500010BD8B07E8D101A9FFF726FF0028F6D0A3
:103260000199204600F0B6FAECE7000010B50A4CD0
:10327000236BDB0605D5FEF77BFA0028FBD0FDF7B4
:10328000C7FFFDF7CBFCE3680BB120699847236BC0
:1032900023F00203236310BDA426002470B59EB062
:1032A000482200210E4C064600250E4817F068FB08
:1032B00001A8256000F01EFA314601A8256000F043
:1032C00027FA236813B901A8FEF7E0F9236823B9A8
:1032D000044A136B43F0030313631EB070BD00BFB9
:1032E00074010124A42600242DE9F8430F4D8946DA
:1032F00090462C6B14F0080415D120F001060C4FF9
:1033000030463C60FDF7ECFD3B681BB13C6020465D
:10331000BDE8F8832B6B0124EE6243F00803C5E996
:1033200000982B63F3E70024F1E700BFA4260024F4
:103330007401012410B5FDF71BFC0446FDF71CFCCD
:10334000024621460248BDE81040FEF72FBC00BFF0
:10335000C426002410B50446FFF7ECFF02482146BE
:10336000BDE81040FEF748BDC4260024024A136B96
:1033700043F0100313637047A4260024054B03C8D1
:1033800003F1340282E803001A6B42F020021A6350
:10339000704700BFA4260024014B5869704700BF46
:1033A000A4260024014B5861704700BFA4260024C6
:1033B000044A136B18B143F004031363704723F0FE
:1033C0000403FAE7A4260024014B93F84400704755
:1033D000A4260024014BC3E90F017047A426002452
:1033E00000487047C426002408B5FFF7A3FF014832
:1033F00008BD00BFC426002408B50A48FEF73FFCFC
:1034000028B1FFF797FF08490648FEF7F5FC054885
:10341000FEF7D4FB0349BDE80840A1F1080000F025
:1034200033B900BFC4260024CB0B0608F8B5184DED
:10343000184F194EFFF77EFF2946184800F0C4F8D0
:1034400087B92846FEF7B7FB2846FEF731FC002374
:1034500006EBC3021279824211D156F833309847F5
:10346000044605E02846AFF3008004460028E8D073
:10347000A20701D4FFF7C0FFE307DBD5F8BD013396
:10348000122BE5D106480024FFF764FFF0E700BFE8
:10349000C426002400000000280D0608BC260024D5
:1034A000CA0D06082DE9F743374C6061FDF758FB5C
:1034B000236B0646190722D5FDF7DEFBE36A20F0F1
:1034C000010098421BD1314F0025D4E900893D60AD
:1034D000FDF742FD3A6802B13D60236BE56223F0DF
:1034E0000803C4E900552363B8F1000F07D048462C
:1034F000C04720B103B0BDE8F043FFF789BCFDF73A
:103500002FFC022884F8440017D0052805D168460E
:10351000FDF736FB9DF800307BB9236B9A060CD57E
:10352000FDF7AAFB636B834207D8A36B834204D9E0
:10353000FDF726FDFDF70CFBDCE7236B23F02003F2
:103540002363A3680BB120699847FDF7D1FD94F878
:103550004430052B0DD1FEF737F950B1FEF736F99F
:1035600038B136B9FFF754FC03B0BDE8F043FFF7BC
:103570007DBE236B9B0701D4FDF70CFBFFF70CF915
:10358000FFF754FFF0E700BFA426002474010124D4
:10359000A0F16103052B01D857387047A0F1410312
:1035A000052B01D8373870473038C3B2092B07D9FB
:1035B000044A4FF0FF301368022BB8BF0223136098
:1035C000704700BF74010124F8B5002604462D4F52
:1035D00046600160207924283FD12068FEF7EBFA8D
:1035E0006671FEF7CFF8C5B220682571FEF7ECFAD8
:1035F00000283FD0242DEDD0232D33D13E60FEF79F
:10360000C1F8C5B22571FEF7BDF8C1B228462171D7
:10361000FFF7BEFF3B6805467BBB0846FFF7B8FFD8
:103620003B6853BB40EA0510A071FEF797F80028ED
:10363000D0D16279A3799A4214BF2D202B20FEF7B6
:10364000B1F86279A3799A42C4D12068FEF7B6FA3C
:103650002068BDE8F840FEF7AEBAFEF793F8C0B2B6
:103660002071B8E76379294620682B446371FEF71F
:103670000DFBB6E7232DADD1C0E76379DB43A37122
:10368000D3E700BF74010124F8B500230446184FA6
:103690001E46436001602068FEF78DFA66712420A3
:1036A000FEF780F82068FEF78FFAB8B92320FEF7FE
:1036B00079F865792B0905F00F05F85CFEF772F8CB
:1036C000785DFEF76FF8FEF75DF8C0B20328207151
:1036D000F9D02B2801D02428DDD1F8BD2068FEF7D1
:1036E000E7FA0546FEF75EF863791D446571D9E790
:1036F000B80D06082822002108B517F041F900226C
:10370000C26280F83020014A826208BDC80D0608F6
:10371000F8B5002605462B4F0C46282231463E6060
:1037200017F02EF92B46EE62214604F1400C03F807
:10373000306F3A4618460C4611F8016B26B16145C8
:103740000C4600F8016BF6D100210170217821B1FF
:1037500011680129B8BF012111601068002830D11B
:103760004FF0010C197861B3194602E0B74206D157
:1037700021460C4614F8017B2FB1AB6A013B13F8CC
:10378000016F002EF2D110600B7843B1EB6A092B68
:1037900097BF5C1CC2F800C0EC6245F823101368A8
:1037A0007BB90B4611F8017B002FDBD0AC6A013CE2
:1037B00014F8016F002EF4D0B742F9D1187001331C
:1037C000D0E7F8BD74010124006870470088704795
:1037D0000078704701607047018070470170704742
:1037E00030B5A1F11004002500F00F02CD730239AD
:1037F0000009D3B2092ACCBF373330330B748C4263
:10380000F2D130BDC2207047074B10B504460360AB
:10381000806A08B108F01AFB236913B19B68201D68
:103820009847204610BD00BF1C18060810B5044676
:10383000FFF7EAFFD821204609F06CFF204610BDB3
:1038400000B5BBB01622172104A805F027FD4FF4E0
:10385000A1733AAA102122F8DC3D00230DEB0100F0
:103860000093022305F070FC04A8FFF7CDFF3BB0E6
:103870005DF804FB04A8FFF7C7FF13F02BFF00005F
:1038800008B5094A0121094BA6201A6001F0A4FDE0
:103890000121A62001F024FEFFF7D2FF044B43F2E2
:1038A000D2021A6008BD00BF00400058EC26002478
:1038B0000040005210B504460AF05AFB2146FFF7BB
:1038C0008FFF0AF05BFB04F11001FFF789FF0AF09C
:1038D0005BFB04F12001FFF783FF302010BD0000E7
:1038E00008B54DF65972002107480FF01DF8BFF3D7
:1038F0004F8F0649064BCA6802F4E0621343CB605F
:10390000BFF34F8F00BFFDE7EC26002400ED00E081
:103910000400FA0500207047704770B590F8383100
:1039200005461446F3B90368DB69984704F47063ED
:1039300004F00F02B3F5407F04F0F0030CBF072141
:103940000821302B0CBF02230123012A08D0901E2E
:1039500042424241A869BDE87040006805F09FBD41
:103960000222F7E770BD38B590F838510446A5B982
:1039700083695BB1186848B10368DB689847A3693D
:1039800004211D60A06909F0C5FEA5610023C4F8EB
:103990002831C4F82C31C4F8303138BD10B4D0E926
:1039A000013401686210E4075DF8044B01EB02008A
:1039B00044BF8A58D358184708B590F838313BB1FE
:1039C000012001F083FC0648BDE8084001F05CBB23
:1039D00082691AB11368003318BF0123184608BD65
:1039E0009431002413B590F8383104466BBBA369B9
:1039F000186805F06BFD40B3D4F83031B3F5807F23
:103A000023D009F029F8A36901220DF107011868F4
:103A100003685B699847D4F83031B3F5807F11D0E3
:103A2000D4F828319DF80720234483F82820D4F8BF
:103A300028310133DBB2C4F82831D4F830310133F6
:103A4000C4F8303109F01EF8D1E702B010BD000013
:103A50007FB590F8383104460E46002B36D1856983
:103A600025B9042009F030FEA0610560A36918683B
:103A700028BB802009F028FE3346B4F922200546F1
:103A8000B4F9201005F0ACFFA3691D60B4F924203F
:103A9000531C06D0A0690321B4F92630006805F054
:103AA000ADFFA369186888B10E4B002269460094E7
:103AB00003930D4B0292019305F02AFD03E031467A
:103AC00005F0DAFCE2E76846FCF7DAFF04B070BD07
:103AD0008021284609F01EFE13F0FCFD6846FCF725
:103AE000CFFFF9E7CC0D0608E539040810B5044608
:103AF000FFF788FE84423BBF2401024B4FF0FF30AA
:103B0000185F10BD0400002470B504460D4601F096
:103B1000BBFA30B12368294620461B6CBDE87040D3
:103B2000184770BDA0F59860EEE7000013B590F857
:103B3000383104468DF807102BB1C9B20B48FFF796
:103B4000E3FF02B010BDA369186805F0D0FC00289F
:103B5000F9D0A36901220DF10701186803681B69F8
:103B60009847013018BF0120EBE700BF94310024D3
:103B70002DE9F04107468846164601F085FA80B1E6
:103B80000024A6420ED9351B08EB04013846B5F5D2
:103B9000007F28BF4FF400752A462C4400F018FF20
:103BA000EFE704462046BDE8F081A0F59860DFE726
:103BB00070B590F8383105460E4614462BB10F48C3
:103BC000FFF7D6FF0446204670BDAB69186805F0C4
:103BD0008EFC0028F9D0AB6901211868C36F7C30D6
:103BE0001B6B9847AB6922463146186803681B690E
:103BF0009847013008BF0024E5E700BF9431002456
:103C000030B50446C3B001F097F90546D4F8D8356D
:103C1000C3F58073984203DDD4F8D855C5F5807597
:103C20002A4601AB02A9204600F0C9FF019902AB68
:103C300000226D1A1D44D4F8D835B3F5807F19D011
:103C40008A4217D0D4F8D835B3F5807F10D0D4F895
:103C5000D035A85C234483F8D004D4F8D0350133A0
:103C6000DBB2C4F8D035D4F8D8350133C4F8D83530
:103C70000132E0E743B030BD38B5044600F026FB22
:103C80002046FFF7BDFFD4F8D855204600F026FBAC
:103C9000284638BDA0F59860EEE7000010B590F812
:103CA000383104462BB10648FFF7E6FF04462046AC
:103CB00010BD08F0D1FED4F8304108F0E3FEF6E77D
:103CC0009431002438B5044600F000FB2046FFF78D
:103CD00097FFD4F8D8354BB1D4F8D435234493F8B2
:103CE000D054204600F0FAFA284638BD4FF0FF3590
:103CF000F7E7A0F59860E5E710B590F8383104468D
:103D00002BB10B48FFF7DEFF0446204610BD08F03C
:103D1000A3FED4F830313BB1D4F82C01044494F81C
:103D2000284008F0AFFEF0E74FF0FF34F9E700BF9E
:103D30009431002438B5044600F0C8FA2046FFF755
:103D40005FFFD4F8D835A3B1D4F8D435234493F821
:103D5000D054D4F8D4350133DBB2C4F8D435D4F818
:103D6000D835013BC4F8D835204600F0B7FA2846CC
:103D700038BD4FF0FF35F7E7A0F59860DAE70000AF
:103D800010B590F8383104462BB11148FFF7D2FF37
:103D90000446204610BD08F05FFED4F830319BB1D8
:103DA000D4F82C31234493F82800D4F82C31013373
:103DB000DBB2C4F82C31D4F83031013BC4F83031D7
:103DC000044608F05FFEE4E74FF0FF34F9E700BF78
:103DD0009431002408B54FF48072002116F0D0FD14
:103DE0000022C0F80021C0F80421C0F8082108BD55
:103DF0002DE9F84300242D4D4FF47A782C4F2026DE
:103E000005F128002F60EC61C5E90148C5E90564AA
:103E1000FFF7E0FF01230E2085F83831FFF766FE3B
:103E2000244D81460D20FFF761FEA5F820904FF646
:103E3000FF79688405F128002F60EC61A5F82490D3
:103E4000A5F82690C5E90148C5E90564FFF7C2FF5A
:103E500085F838410F23184D2B84562305F128008F
:103E60002F606B845823EC61AB845923C5E901486A
:103E7000EB84C5E90564FFF7ADFF85F83841982369
:103E80000E4D2B84992305F128002F60EC616B8483
:103E9000A5F82490A5F82690C5E90148C5E9056470
:103EA000FFF798FF85F83841BDE8F883C42A00245D
:103EB000E00D0608102700244C280024882900243F
:103EC000002070477047704710B5D0F88C452CB172
:103ED000236820465B689847A468F8E710BD38B5AA
:103EE0000D46D0F88C4534B12368204629469B689E
:103EF0009847A468F7E738BD00487047A00E060849
:103F0000054B10B50446036007F08DF8204607F016
:103F1000A3F8204610BD00BF200E060810B50446C9
:103F2000FFF7EEFF4FF4B261204609F0F3FB2046A5
:103F300010BDF7B5002305460E46D0F88C45A4B158
:103F4000236831460DF103022046DF6801ABB84714
:103F50009DF803100346042905D0019A284606F06F
:103F6000BFFA03B0F0BDA468E9E7019A9DF8031019
:103F7000F4E770B505460E4622B10021BDE8704059
:103F800006F0AAB8D0F88C455CB12368002231460F
:103F900020461B69984710B101212846EEE7A46826
:103FA000F2E72146F9E770B50E460546D0F88C4594
:103FB00000213CB12368314620465B699847A468DC
:103FC0000146F6E72846BDE8704006F085B9F8B529
:103FD00005460E461746D0F88C453CB1236820466E
:103FE0003A4631469B699847A468F6E7284601217E
:103FF000BDE8F84006F0CEB970B5002186B00446A1
:1040000006F06AFC00234FF48975A188EF26ADF80D
:1040100006302389ADF8045002258DF810301B0AB4
:10402000E2888DF8113040F201238DF80750ADF889
:10403000123040F203138DF809500125ADF8143009
:1040400004F10A038DF8086005AE8DF80A501C468D
:104050008DF80C1001AD090A8DF80E20120A8DF8AA
:104060000B008DF80D108DF80F202A46083303CA77
:10407000B24243F8080C43F8041C1546F5D11288E7
:1040800020461A8006B070BDF8B5002406460D46DD
:104090002746304617F074FBA04207D9335D05F878
:1040A000143005EB440301345F70F2E7400000F088
:1040B000FE00F8BD38B50446D0F88C5535B12B68F4
:1040C00028461B6A984710B9AD68F7E7284640F2C2
:1040D000023304F24A51A4F84835FFF7D5FF94F8AB
:1040E0004835184484F8480504F5A96038BD000037
:1040F00040F2023300F20A5110B50446A0F8083528
:104100000548FFF7C1FF94F80835184484F80805FE
:1041100004F5A16010BD00BF0C0E060840F202338A
:1041200010B50446A0F8C83400F2CA40FFF7C2FB3D
:1041300094F8C834184484F8C80404F5996010BD94
:104140002DE9FF4100231D4A044600F54E788DF805
:104150000A30092590F888350192FA228DF8083046
:1041600001238DF80C208DF80930C0238DF80B3019
:1041700001AB03CBC4F83803C8F8041088F8082052
:10418000D4F88C658EB13368002130461B6898479F
:10419000478805F54E7300F10901093FE0183A46DA
:1041A0003D4416F0EFFAB668ECE784F83A5340461F
:1041B0002D1284F83B5304B0BDE8F0810902FFFFE3
:1041C00073B504460D46164610F08EFD4FF480730D
:1041D00001462A4620460093334606F045FB024B33
:1041E0002046236002B070BD200E060810B5D0F83E
:1041F0008C350446A3B9C0F88C1594F88835084668
:104200004A790B7194F88835134484F888350B6823
:104210005B6A9847238918442081012010BD13460A
:104220009A68002AFBD19960E7E71FB5044606F0BB
:1042300015FB0146684605F09DFC4021684605F0E7
:1042400008FDD4F88C4534B1236869462046DB6903
:104250009847A468F7E7684605F093FC04B010BDE2
:10426000684605F08EFC13F035FA10B50446FFF7EA
:10427000DCFF2046BDE8104006F060BA0F4808B5E4
:104280000378BFF35B8FDB0711D408F0D7FF70B161
:1042900040F25B2242F241310948FFF791FF0748A3
:1042A00008F0EEFF074A0849054808F0B7FF044840
:1042B00008BD024809F0F0F913F00CFA002C0024B4
:1042C000042C002400000024013F040810B5FFF76F
:1042D000D5FF0368BDE810405B6F184710B5FFF7C6
:1042E000CDFF0368BDE810409B6F184710B5FFF77E
:1042F000C5FF0368BDE81040DB6F184705F0E6BD59
:1043000005F0A8BD05F0D2BD704770477047436AFD
:1043100093F878007047D0F8A404704701207047E4
:1043200000487047001006082DE9F04794B0044695
:104330000F464B22002101A816F022FB2679D4F863
:10434000A434751C94F80E90002B94F80C80EDB2F8
:1043500094F80DE014BF05200020002F40F093805A
:1043600040F2092309218DF81D0042F20540ADF805
:1043700004304FF481738DF815100121ADF8083029
:104380008023ADF81E0010208DF80B3032234FF043
:10439000040A24278DF80C3008234FF0030C4B221D
:1043A0008DF80D300B238DF819101D348DF80E305B
:1043B00040F202238DF81C10ADF8103002238DF866
:1043C000210005208DF822108DF825108DF827107A
:1043D00006218DF806208DF80F608DF812308DF8CB
:1043E00017608DF81A308DF81B308DF823008DF88A
:1043F00026C08DF82A308DF82B108DF82C008DF802
:1044000016A08DF824708DF828A08DF829708DF8ED
:104410002D708DF82E1007218DF82F6041F20206C5
:104420008DF831108DF8411040F207518DF8305061
:10443000ADF8366040F209468DF83A5040F6022554
:104440008DF832008DF842002046ADF848100DEB93
:104450000A018DF833908DF834C0ADF83860ADF8AE
:104460003C508DF843808DF844308DF846308DF8FF
:104470004AE08DF84B308DF84D3016F083F9204628
:1044800014B0BDE8F0870020FAE700000A4B10B531
:1044900004460360FFF7F2FE06F0C5FD04F5247044
:1044A00005F072FC04F17C0005F06EFC04F1700074
:1044B00005F06AFC204610BDC00F060810B5044682
:1044C000FFF7E4FF4FF49561204609F023F92046F9
:1044D00010BDFFF70BBF0000034B10B5044603608F
:1044E00005F0D0FA204610BDE80E060810B50446C7
:1044F000FFF7F2FF2821204609F00CF9204610BDF5
:10450000034B10B50446036005F0BCFA204610BD0D
:10451000B80E060810B50446FFF7F2FF3421204616
:1045200009F0F8F8204610BD034B10B504460360AF
:1045300005F0A8FA204610BDD00E060810B50446B6
:10454000FFF7F2FF3821204609F0E4F8204610BDBD
:1045500038B51E4B0D4604464FF400721968C0F87A
:104560000F1099889B79A0F81310022143752846F3
:1045700005F065FB4FF4007220730221284605F018
:1045800063FB4FF4007260730321284605F057FB6C
:10459000A073284605F0F6FA20B9AF220C490D4861
:1045A00008F062F904F185020023C4F8882204F2BD
:1045B000992284F8783084F88430C4F88C3284F8F6
:1045C0009832C4F89C24C4F8A03438BD040F0608FF
:1045D000400F0608A40F06082DE9F34104460E46D5
:1045E0001546FFF783FEF28823799A4237D1002DD2
:1045F00035D17778012F2ED1F378202B27D132892E
:10460000072A24D104F10F0804F116054046294673
:1046100016F086F8D0B1D4F81630C4F80F30638B9A
:10462000207CE17BA4F8133001EB0021E57C607C69
:10463000237F01EB00410095A07C2568637501EBA9
:104640000061237D2046627D6D6BA8473D46F3786F
:10465000212B08BF0125284602B0BDE8F0810025C6
:10466000F9E710B50446FFF741FEFFF707FE217B8F
:1046700006F076FB04F1850304F17C00C4F888326F
:104680000023C4F88C3284F8843005F032FB94F8AF
:1046900084302BB923682046DB6BBDE810401847F7
:1046A00010BD000070B50446FFF720FED4F8A054FA
:1046B0002DB140F2DD120F490F4808F0D5F804F291
:1046C0009923C4F89C34FFF7D9FD617B06F0A6FA64
:1046D00084F89852C4F8A00404F5247005F009FB8E
:1046E00094F898322BB9236820469B6BBDE8704044
:1046F000184770BD400F0608100F060810B4D0E927
:10470000013401686210E4075DF8044B01EB02001C
:1047100044BF8A58D358184770B586B00546FFF78E
:10472000E5FD02ACFFF7AAFD0023A97B00944FF43E
:1047300000720593032306F01BF82046214EFCF778
:104740009FF9FFF79BFD204A297B02230392002259
:10475000009404924FF400720596029506F008F852
:104760002046FCF78DF9FFF789FD184B697B4FF464
:10477000007203930023009404930223059602958C
:1047800005F0F6FF0CE02046FCF77AF912F0A2FFE4
:104790002046FCF775F9F9E72046FCF771F9F5E7D3
:1047A0002046FCF76DF9FFF769FD4FF40073D5F86B
:1047B0009C24697B06F0D4F9012085F8980206B0A4
:1047C00070BD00BFF80E060863460408A54604083D
:1047D00002232DE9F041437100230446054683601E
:1047E0009046144B04F17C0645F8703B284605F0D2
:1047F00073FA304605F070FA04F52477384605F070
:104800006BFAC4F8A484FFF739FD2146FFF7EEFCEC
:104810000CE0384605F0B8FA304605F0B5FA2846FF
:1048200005F0B2FA12F056FFF6E7F8E72046BDE8C9
:10483000F08100BFC00F060870B504460D46FFF7B3
:1048400055FD84F87850002D3ED194F8843033B172
:10485000FFF714FD217B06F05BF884F8845004F127
:10486000850304F17C0600253046C4F88832C4F87C
:104870008C5205F03EFA304605F034FA28B94FF470
:10488000A2721449144807F0EFFF94F8983233B13C
:10489000FFF7F4FC217B06F03BF884F8985204F211
:1048A000992304F52475C4F89C3400232846C4F8E1
:1048B000A03405F01EFA284605F014FA20B94FF48A
:1048C000A77204490548DEE704F17000BDE87040B6
:1048D00005F00FBA400F06081E0F06082F0F060836
:1048E00010B50446FFF702FD00212046BDE8104048
:1048F000FFF7A2BF38B50D460446FFF7F7FC042DBD
:1049000005D020460021BDE83840FFF795BF38BDEF
:10491000F8B5164604460D461F46FFF7E7FC04238C
:10492000EA88337023799A4225D16978012922D106
:10493000EA78212A08D0222A0BD0202A4FF0000042
:104940001BD13070163401E00F34317007203C6009
:10495000F8BDAB88204613F0010308BF1946FFF7E6
:104960006BFFAB8803F00103E366AB8803F002033F
:10497000A366022333700020EAE703233370E7E7DE
:1049800010B58AB00446FFF7A1FC684605F06EF842
:104990000D4B694604F170000093099405F0C1F9CC
:1049A0002046FFF79BFC094B002168461A6805F07A
:1049B000A7F86846FFF790FD0AB010BD6846FFF7FC
:1049C0008BFD12F087FE00BFE80E06080C0F0608EC
:1049D00070B58EB004460E461546FFF777FC01A869
:1049E00005F044F8114B01A904F17C000193002368
:1049F0000C958DF83430CDE90A4605F092F9204641
:104A0000FFF76CFC0A4B002101A81A6805F078F842
:104A100004E001A8FFF774FD12F05CFE9DF834403D
:104A200001A8FFF76DFD20460EB070BDB80E060858
:104A30000C0F060810B50446FFF758FC94F88430B4
:104A40007BB9D4F88C3263B1FFF718FCD4F88C3200
:104A500004F18502217B06F021F910B1012384F8CD
:104A6000843010BD2DE9F8431E4604468946904621
:104A70009DF82070FFF72AFC0023336094F878300B
:104A8000E3B194F88430CBB9D4F88C52C5F50075F5
:104A9000454528BF4546B8F1000F05D02A4649468E
:104AA000D4F8880215F06EFED4F88C322B44C4F88A
:104AB0008C32356017B12046FFF7BCFF2046BDE8B9
:104AC000F843FFF70BBCF0B50446406A85B00126F9
:104AD00090F878502DB984F830503546284605B006
:104AE000F0BD04AB0027D4E90A1243F8047D009618
:104AF000FFF7B8FF0399E36AA26A5B1A0A44E3620C
:104B0000A26213B984F83060E8E7606A3D46FFF7B7
:104B100091FFE3E72DE9F0431C4691B00546894635
:104B20009046FFF7D3FB002C4FF0000602A806BF0B
:104B300001AC01270027266004F098FF134B02A95F
:104B400005F5247002938DF83C708DF83D60CDE939
:104B50000B59CDE90D8405F0E4F82846FFF7BEFBBC
:104B60000B4B314602A81A6804F0CAFF04E002A801
:104B7000FFF7DAFC12F0AEFD9DF83D4002A8FFF70A
:104B8000D3FC204611B0BDE8F08300BFD00E06086C
:104B90000C0F060810B5D0F8A034044673B990F88D
:104BA00098325BB9FFF76AFB4FF4007304F2992265
:104BB000617B05F0D5FF012384F8983210BD70B5F4
:104BC00004461E4600230846336094F87830EBB163
:104BD00094F89832D3B9D4F8A054D4F89C149542E0
:104BE00028BF15462A4615F0CDFD3560D4F89C3413
:104BF000D4F8A0242B44551BC4F89C34C4F8A0540A
:104C000025B92046BDE87040FFF7C4BF70BD37B579
:104C10000446406A90F878502DB984F83550012543
:104C2000284603B030BD02AB002243F8042DD4E97E
:104C30000A12FFF7C4FF0199A26A0A44A262226B1A
:104C400013680B4413600199E36A5B1A94F83410FB
:104C5000E36209B9126802B91BB9012384F835303F
:104C6000DEE7606A0025FFF795FFD9E76FF01500D2
:104C7000704700290CBF6FF018000020704701201A
:104C800070476FF0150070476FF0150070471120E6
:104C9000704770477047704703689B6C1847A0F5D2
:104CA0009860F9E7704770477047704710B5044641
:104CB000012000F00BFB94F8780010BDA0F598607F
:104CC000F4E7000038B54FF0FF320123FF210B4815
:104CD00008F0BEFE0A4D00F0E7FA044695F8783079
:104CE0001BB1012000F0F2FAF8E700F0DDFA001B3A
:104CF000C728F6D9BDE83840FEF7F2BDCC3700240E
:104D00009431002407B502AB012243F8041D194673
:104D1000FFF75EFE18B1019803B05DF804FB4FF099
:104D2000FF30F9E7A0F59560FFF7ECBF07B500236A
:104D300002A9012201F8013DFFF7ECFE20B19DF828
:104D4000070003B05DF804FB4FF0FF30F9E7A0F572
:104D50009560FFF7EBBF2DE9F843044688461746F8
:104D60001E46089DFFF7C2FAD4F8F095B9F1000F7E
:104D700004D02B46324639464046C847C4F8E08541
:104D8000C4F8E475C4F8E865C4F8EC55BDE8F883E8
:104D900070B506460025FFF7A9FA06F2F454D6F8D6
:104DA0003436AB4208D92046103454F8043C1BB1C9
:104DB0001B6801359847F2E770BD0000B0F5966FAB
:104DC00003D10121014808F025BE7047CC370024EB
:104DD00010B4D0E9013401686210E4075DF8044BB7
:104DE00001EB020044BF8A58D3581847114B03F116
:104DF000780270B503600446C0F8A82400F2F456A7
:104E000003F1D80200F23465E833C0F8AC24C0F8EE
:104E1000C034AE4204D0103D2846FBF731FEF8E71F
:104E200004F5956007F094F92046FFF72FFB204624
:104E300070BD00BF34100608A0F59560FFF7D6BF1F
:104E4000A0F2AC40FFF7D2BF10B50446FFF7CEFF8B
:104E50004FF4C761204608F05DFC204610BDA0F26B
:104E6000AC40FFF7F1BFA0F59560FFF7EDBF000084
:104E7000F7B51E4604460F4615460FF035FFBDF840
:104E8000243001462A4601932046BDF82030009385
:104E9000334604F59566FFF79BFC0021304607F08A
:104EA0002DF94FF47A73002504F59A60C4F8C834DC
:104EB0002946204BC4F8C45403F178022360C4F897
:104EC000A82403F1D802E833C4F8AC244FF480726C
:104ED000C4F8C03415F054FDC4F8D055C4F80056D9
:104EE000C4F8D455C4F81056C4F8D855C4F82056A0
:104EF000C4F83056C4F83456C4F8F055BFB1204653
:104F0000FFF73EFD13E004F2346504F2F457BD42AE
:104F100004D0103D2846FBF7B3FDF8E7304607F014
:104F200017F92046FFF7B2FA12F0D4FBF9E7204652
:104F300003B0F0BD3410060838B50546FFF7C6F9D2
:104F400095F898325BB9D5F8A044B4F5007F28BF36
:104F50004FF400742846FFF7C1F9204638BD0024FD
:104F6000F8E70000F0B587B00446FFF7AFF93D4B16
:104F70002046C4F8F035FFF7B1F93B4B20460294C8
:104F800005933A4B039300230493FFF79FF9D4F85A
:104F90003456032D03D92046FFF7A0F915E004EBA2
:104FA00005166B1C06F2F456C4F834363046FBF78F
:104FB00067FD059B04EB0515C5F80036002BEAD00C
:104FC0005B6802A930469847E5E702A8FBF758FD61
:104FD000BC2008F079FB264B002100F14006054675
:104FE00003600161304608F0D7FD05F154073846EB
:104FF00008F070FD1F4B4FF4807218212846009373
:10500000002308F061FE1C4B02A9C4F8DC552846B9
:1050100005931A4B02930023CDE9033308F060FE99
:1050200010E0384608F096FD304608F0DEFD281DF9
:10503000FBF726FDBC21284608F06CFB12F04AFB6A
:10504000F2E7F4E702A8FBF71BFD2046FEF7D8FDC8
:1050500007B0F0BD02A8FBF713FDEFE702A8FBF7CE
:105060000FFDEBE7BD4D040818100608013C0408CD
:10507000F028060824100608FCFB0508C54C0408A7
:10508000A0F59860FFF76EBF90F8780070470000B9
:1050900037B50F4C0F4D204608F0ACFC2A460E49A0
:1050A000204608F0BBF842F2120301220B4CCDE976
:1050B000003200224FF4F85320461146FFF7D8FE85
:1050C0002A460749204603B0BDE8304008F0A6B89C
:1050D000CC370024000000241BDA0408943100249B
:1050E000ED4D040808B513F0D7FF2DE9F843064647
:1050F0000D46071D00F10709002417F8011B0A22BD
:10510000284600F093F880462E21284600F02DF81E
:105110004F4540440444F0D10A22F179284600F07A
:1051200085F82044BDE8F883024B034A1A60002248
:105130005A607047E03700245011060870B50446E5
:1051400008460D4616F01CFB2368024629462046F9
:105150005B68BDE87040184709B1FFF7EFBF08462C
:10516000704708B5FFF7F8FF08BD03681B681847CC
:105170000149FFF7E3BF00BF610C060838B50546DB
:10518000FFF7EAFF04462846FFF7F2FF204438BD48
:1051900070B58AB00D460023012A98BF0A220AA9D9
:1051A00001F8043DB5FBF2F402FB14562546F3B2B8
:1051B000092E94BF30333733DBB201F8013D002CA8
:1051C000F0D1FFF7C9FF0AB070BD2DE9F0410746E5
:1051D0000E4615462AB90368C9B21B68BDE8F041FE
:1051E00018470A2A05D1002905DBBDE8F041FFF781
:1051F000CFBFD2B2F9E72D21FFF7B7FF04462A4609
:1052000071423846FFF7C4FF2044BDE8F081FFF744
:10521000DCBF10B42AB90368C9B25DF8044B1B683F
:105220001847D2B25DF8044BFFF7B2BFFFF7F1BFEA
:1052300010B500F04DF80A4CFEF722FBFFF71EF800
:10524000FFF713F84FF4E1310648FFF78BFEFBF749
:105250007DF8FBF77CF8002CFBD0AFF30080F8E77B
:10526000000000009431002470B505460024074E6C
:10527000FEF7C8FAE3B2984206D918461B0101347A
:10528000F35EAB42F4D170BDFF20FCE704000024C4
:1052900010B5044604F053FA204610BD10B504467C
:1052A00004F04DFA204610BD07B50749684604F0E2
:1052B00083FA4FF47A720023DDE9000112F096FDC3
:1052C00003B05DF804FB00BFE837002408F094BC8D
:1052D00008B5044804F03DFA0348BDE8084004F06E
:1052E00038BA00BF00380024E837002438B50A4C2B
:1052F0000A4D204604F09DFA2046094C2A460949E9
:1053000007F08CFF204604F09FFA2A462046064903
:10531000BDE8384007F082BF0038002400000024B8
:10532000E83700249D5204089152040870B50446E1
:105330000D46164600211C2215F022FB204632465F
:10534000294606F066FA204670BD00002DE9F041BE
:10535000204D060180460F46AB19DC68B4B9FEF754
:1053600051FA80454FF01C0034BF35F906804FF0EC
:10537000FF3808F0A9F9044600211C2215F000FBB3
:105380004146204606F042FA3544EC60012F10D029
:1053900006D3022F12D0204603F077FE022103E04D
:1053A000204603F072FE00212046BDE8F04103F0E4
:1053B00079BE2046BDE8F04103F05ABE204603F016
:1053C00064FE0121F0E71C21204608F0A3F912F049
:1053D00081F900BF0400002430B589B004460D46B1
:1053E000FFF742FFC0B2FF2804D02946FFF7AEFF07
:1053F00009B030BD012D14D00AD3022D1CD00222D9
:10540000214601A8FFF792FF01A806F08DF9EFE70A
:105410000022214601A8FFF789FF01A806F084F9C0
:10542000E6E71C22002101A815F0AAFA0022214675
:1054300001A806F0F0F9DBE70122214601A8FFF7F9
:1054400075FF01A806F070F9D2E700002DE9F341DD
:1054500007468846FEF7D6F987422ED21D4D3E01FB
:10546000AB19DC68CCB9FEF7CDF987424FF01C00D0
:1054700034BFAF5F4FF0FF3708F026F904461C2217
:10548000002115F07DFACDF8008000230122394675
:10549000204606F0C7F93544EC600F4B0F491A4619
:1054A000D3F894008842FBD12368B8F1000F07D0ED
:1054B000A1680B604FF44073536102B0BDE8F08106
:1054C000E1681B04F5E71C21204608F023F912F0DF
:1054D00001F900BF040000240064025800030080AA
:1054E00030B589B005460C46FFF7BEFEC0B2FF28B6
:1054F00004D02146FFF7AAFF09B030BD1C220021CD
:1055000001A815F03DFA294601A806F088F9094BD3
:1055100009491A46D3F894008842FBD1019B2CB16B
:1055200003990B604FF440735361E5E71B04049942
:10553000F7E700BF00640258000300801EF0040F6C
:105540000CBFEFF30880EFF30980816911F8021CAA
:1055500091BB01B590E80F10E047BDE800508CE822
:105560000300244B93E80600914208BF704741B9FD
:105570001EF0100F10D12049086820F001000860CB
:105580000AE02CE9F00F1EF0100F08BF2CED108A76
:10559000C1F838C081F822E01A6092F82210906BAE
:1055A00061F0FF0E1EF0100F08BFB0EC108AB0E8DB
:1055B000F00F80F309887047104A13689942FAD8AF
:1055C00001B552F821C00FC8E047BDE80050CCF843
:1055D0000000704701B501F0BDFBBDE80140EFF3ED
:1055E000098CBEE701B501F07DFBBDE80140EFF39A
:1055F000098CB6E7380C002434EF00E014120608DA
:10560000014608B510B1132001F07CFF002008BD51
:1056100008B5EFF305832BB9EFF3108313B9EFF35C
:10562000118333B16FF0050000F004FA6FF005004C
:1056300008BDDFF808C000DFFAE700BF0156040824
:10564000EFF310832BB9EFF31180003818BF01205E
:1056500070470120704710B520B10378F32B01D1BA
:10566000002906DA6FF0030102F080FB6FF00300FF
:1056700010BD00F10C0353E8000F20EA010243E8DB
:10568000002404B1F7E7F3E738B538B38468056858
:105690006CB114F0030302D1C2680F2A13D800249E
:1056A0006FF00801002002F061FB204638BDC3689E
:1056B000002BF4D1104BD3F8900088B100F084FC9B
:1056C0000446A0B10123F322A37000236560227079
:1056D0000A4AC4E90233084B5A66E6E70546E9E799
:1056E00001221021D3F8800000F0FAFBE8E76FF008
:1056F000040102F03BFBD8E7240C0024D95704082E
:1057000070B5054610B10378F32B07D028466FF02B
:10571000030102F02BFB6FF0030070BD836863B1DF
:10572000284601F0A3FC00226FF0020101F04EFDBB
:10573000A8680028F4D101F01DFDAB78002613F015
:1057400001032E700FD0094B2946D3F8904024B1A5
:10575000204600F053FC3046DFE7D3F8800000F02D
:10576000F4FB2046D9E71846D7E700BF240C0024F5
:10577000930710B502F0010422D400F10C0384B1A8
:1057800053E8000F00EA01028A4203D0BFF32F8FD3
:10579000002005E020EA010243E8002404B1EFE71D
:1057A00010BD53E8000F084203D1BFF32F8F002034
:1057B00005E020EA010243E8002404B1F1E7EFE745
:1057C000C06801EA00031CB18B4218BF0020E7E764
:1057D000002B08BF0020E3E7F8B50546846804B94C
:1057E000F8BD94F823202846616AA768FFF7C0FF38
:1057F000064638B1204601F042FC002231462046E0
:1058000001F0E4FC3C46EAE7F8B50D4617461E46B3
:10581000044620B10378F32B01D1002907DA204692
:105820006FF0030102F0A2FA6FF00300F8BDFFF77A
:105830009FFF0028FAD186B13146432001F062FE75
:1058400040B1074B20465E69314601F0FDFB7562B1
:1058500086F823706FF00100E8E76FF00200E5E7DB
:10586000240C00242DE9F041064620B10378F32BE7
:1058700001D1002909DA6FF003056FF0030130460A
:1058800002F074FA2846BDE8F08100F10C0353E8F9
:10589000002F42EA010543E8005000B1F7E7B46881
:1058A0001CB9204601F066FCECE794F82320304652
:1058B000616AD4F80880FFF75BFF074678B194F877
:1058C00023309B0756BF656A054620EA050520463A
:1058D00001F0D5FB00223946204601F077FC444612
:1058E000DEE70000024608B5EFF3058333B1002080
:1058F0006FF0050102F03AFA002008BDFFF7A0FEA4
:105900000028F4D11046DFF808C000DFF5E700BF3B
:105910008956040838B502460D46EFF305834BB1AE
:1059200092B96FF003046FF00301104602F01EFA03
:10593000204638BDFFF784FE0028F1D11046DFF87D
:1059400030C000DF0446F3E71378F32BE9D1002DD4
:10595000E7DB02F10C0353E8001F41EA050443E8CA
:10596000004000B1F7E7104601F03CFAE0E700BF65
:105970006558040810B502460C46EFF305832BB1B9
:1059800021461046BDE81040FFF765BEFFF758FE00
:105990000028F5D11046DFF808C000DF10BD00BFB9
:1059A00057560408F8B504460E4617461D46EFF351
:1059B000058343B18CB920466FF0030102F0D6F99C
:1059C0006FF00300F8BDFFF73BFE0028F2D1204640
:1059D0002B46DFF828C000DFF4E72378F32BEAD169
:1059E000002DE8D1002EE6DB3A4631462046FFF78F
:1059F000BFFE002808BF6FF00200E3E70958040863
:105A0000024608B5EFF305833BB110466FF0050180
:105A100002F0ACF96FF0050008BDFFF711FE002899
:105A2000F3D11046DFF804C000DFF5E701570408A2
:105A3000704770477047EFF310832BB9EFF3118075
:105A4000003818BF0120704701207047014BD8680B
:105A5000704700BF240C002408B5094B1A7A022AAB
:105A600008D0032A0AD04FF0FF3002F073F94FF04C
:105A7000FF3002E0032200201A7208BD0120FCE77B
:105A8000240C002470B5484C217A012900F08A804A
:105A900031B14FF0FF3002F05DF94FF0FF3070BDD3
:105AA000424D9C2204F1080014F06AFFEB68E365A4
:105AB0002B8AD5E90B61A4F85430AB6830462364D7
:105AC00000F0F6F908B1C4F88060D5E90561304608
:105AD00000F0EEF908B9D4F880606667D5E907618F
